{
  "transactions": [
    {
      "hash": "0xca6f8d3a125e2a693b6b72f04b62000601ba1d6d8eaf6d8467aeb4d9b3a3ccd9",
      "transactionType": "CALL",
      "contractName": null,
      "contractAddress": "0x2ec5ddafb0b6e6e25ce5e906cb3cb3cf3f6db88d",
      "function": "register(bytes32,string,bytes)",
      "arguments": [
        "0x221806ce8c34fcca8fbeec24c7168277dd82c87fa7c18ff0f687675c046f36ce",
        "ipfs://Qmcm9t65yxW6gngJMmR9awydrwGV3peR5j2HdHJzTC2ymv",
        "0x"
      ],
      "transaction": {
        "from": "0xf13aad6dc07f64e4ee5577f91143a78b54bf4717",
        "to": "0x2ec5ddafb0b6e6e25ce5e906cb3cb3cf3f6db88d",
        "gas": "0x2aba1",
        "value": "0x0",
        "input": "0x85a0256f221806ce8c34fcca8fbeec24c7168277dd82c87fa7c18ff0f687675c046f36ce000000000000000000000000000000000000000000000000000000000000006000000000000000000000000000000000000000000000000000000000000000c00000000000000000000000000000000000000000000000000000000000000035697066733a2f2f516d636d3974363579785736676e674a4d6d5239617779647277475633706552356a324864484a7a544332796d7600000000000000000000000000000000000000000000000000000000000000000000000000000000000000",
        "nonce": "0x3",
        "chainId": "0xaa36a7"
      },
      "additionalContracts": [],
      "isFixedGasLimit": false
    }
  ],
  "receipts": [
    {
      "status": "0x1",
      "cumulativeGasUsed": "0xbd250e",
      "logs": [
        {
          "address": "0x2ec5ddafb0b6e6e25ce5e906cb3cb3cf3f6db88d",
          "topics": [
            "0x3b78d02482eba8ad394f67d350deddddc48f7912243976bd35923914023697ea",
            "0x221806ce8c34fcca8fbeec24c7168277dd82c87fa7c18ff0f687675c046f36ce",
            "0x000000000000000000000000f13aad6dc07f64e4ee5577f91143a78b54bf4717"
          ],
          "data": "0x000000000000000000000000000000000000000000000000000000000000004000000000000000000000000000000000000000000000000000000000000000a00000000000000000000000000000000000000000000000000000000000000035697066733a2f2f516d636d3974363579785736676e674a4d6d5239617779647277475633706552356a324864484a7a544332796d7600000000000000000000000000000000000000000000000000000000000000000000000000000000000000",
          "blockHash": "0x545a6f14b2721e36d4756797eb4245a4030593f0f415ec644504d5f17e7d6bc7",
          "blockNumber": "0xa7489c",
          "blockTimestamp": "0x6a1c8bfc",
          "transactionHash": "0xca6f8d3a125e2a693b6b72f04b62000601ba1d6d8eaf6d8467aeb4d9b3a3ccd9",
          "transactionIndex": "0x81",
          "logIndex": "0x189",
          "removed": false
        }
      ],
      "logsBloom": "0x00000000000000000000000000000000000000000000000000000000000000000001000000000000000000000000000000001000000000000000000000000800000000000000000002000000000000000000000000000000000000000000022000000000000000000000000000000400000000000000000000000000000000000000000000000000000000000000000000000000000000000000000000000080000000000000000000000000000000000000080000000000000000000000000000000200000000000000000000000000000008000000000000000000000000000000000000000000000000000000000000000000000000000000000000000000",
      "type": "0x2",
      "transactionHash": "0xca6f8d3a125e2a693b6b72f04b62000601ba1d6d8eaf6d8467aeb4d9b3a3ccd9",
      "transactionIndex": "0x81",
      "blockHash": "0x545a6f14b2721e36d4756797eb4245a4030593f0f415ec644504d5f17e7d6bc7",
      "blockNumber": "0xa7489c",
      "gasUsed": "0x1d371",
      "effectiveGasPrice": "0x423473ec",
      "from": "0xf13aad6dc07f64e4ee5577f91143a78b54bf4717",
      "to": "0x2ec5ddafb0b6e6e25ce5e906cb3cb3cf3f6db88d",
      "contractAddress": null
    }
  ],
  "libraries": [],
  "pending": [],
  "returns": {},
  "timestamp": 1780255740544,
  "chain": 11155111,
  "commit": "fa35c41"
}