{
  "transactions": [
    {
      "hash": "0x485e694ebacd4b6f92b733407e0d511cbc3db9de92a399e5f888d32945b25e47",
      "transactionType": "CALL",
      "contractName": null,
      "contractAddress": "0x2ec5ddafb0b6e6e25ce5e906cb3cb3cf3f6db88d",
      "function": "register(bytes32,string,bytes)",
      "arguments": [
        "0x627521cfe327f54fab2fbc347e65db793af7050261b23bb749d7450dee25a40f",
        "ipfs://QmZpT2JJCWACtkLcexuBFzTyURtUyf4GXL7CW2bHeiqREL",
        "0x"
      ],
      "transaction": {
        "from": "0xf13aad6dc07f64e4ee5577f91143a78b54bf4717",
        "to": "0x2ec5ddafb0b6e6e25ce5e906cb3cb3cf3f6db88d",
        "gas": "0x2aba1",
        "value": "0x0",
        "input": "0x85a0256f627521cfe327f54fab2fbc347e65db793af7050261b23bb749d7450dee25a40f000000000000000000000000000000000000000000000000000000000000006000000000000000000000000000000000000000000000000000000000000000c00000000000000000000000000000000000000000000000000000000000000035697066733a2f2f516d5a7054324a4a43574143746b4c6365787542467a54795552745579663447584c37435732624865697152454c00000000000000000000000000000000000000000000000000000000000000000000000000000000000000",
        "nonce": "0x4",
        "chainId": "0xaa36a7"
      },
      "additionalContracts": [],
      "isFixedGasLimit": false
    }
  ],
  "receipts": [
    {
      "status": "0x1",
      "cumulativeGasUsed": "0x13a6fdc",
      "logs": [
        {
          "address": "0x2ec5ddafb0b6e6e25ce5e906cb3cb3cf3f6db88d",
          "topics": [
            "0x3b78d02482eba8ad394f67d350deddddc48f7912243976bd35923914023697ea",
            "0x627521cfe327f54fab2fbc347e65db793af7050261b23bb749d7450dee25a40f",
            "0x000000000000000000000000f13aad6dc07f64e4ee5577f91143a78b54bf4717"
          ],
          "data": "0x000000000000000000000000000000000000000000000000000000000000004000000000000000000000000000000000000000000000000000000000000000a00000000000000000000000000000000000000000000000000000000000000035697066733a2f2f516d5a7054324a4a43574143746b4c6365787542467a54795552745579663447584c37435732624865697152454c00000000000000000000000000000000000000000000000000000000000000000000000000000000000000",
          "blockHash": "0xbb54cf264328ee6b76dc006662be6f50ee18b51a5ad5195347da98009d052dd8",
          "blockNumber": "0xa74a54",
          "blockTimestamp": "0x6a1ca1f8",
          "transactionHash": "0x485e694ebacd4b6f92b733407e0d511cbc3db9de92a399e5f888d32945b25e47",
          "transactionIndex": "0xcb",
          "logIndex": "0x252",
          "removed": false
        }
      ],
      "logsBloom": "0x00000000000000000000000000000000000000000000000000000000000000000000000000000000020000000000000000001000000000000000000000000800000000000000000002000000000000000000000000000000000000000000002000000000000000000000000000020400000000000000000000000000000000000000000000000000000000000000000000000000000000000000000001000080000000000000000000000000000000000000080000000000000000000000000000000200000000000000000000000000000000000000000000000000000000000000000000000000000000000000000000000000000000000000000000000000",
      "type": "0x2",
      "transactionHash": "0x485e694ebacd4b6f92b733407e0d511cbc3db9de92a399e5f888d32945b25e47",
      "transactionIndex": "0xcb",
      "blockHash": "0xbb54cf264328ee6b76dc006662be6f50ee18b51a5ad5195347da98009d052dd8",
      "blockNumber": "0xa74a54",
      "gasUsed": "0x1d371",
      "effectiveGasPrice": "0x4056a681",
      "from": "0xf13aad6dc07f64e4ee5577f91143a78b54bf4717",
      "to": "0x2ec5ddafb0b6e6e25ce5e906cb3cb3cf3f6db88d",
      "contractAddress": null
    }
  ],
  "libraries": [],
  "pending": [],
  "returns": {},
  "timestamp": 1780261369179,
  "chain": 11155111,
  "commit": "55553f1"
}