{
  "transactions": [
    {
      "hash": "0xfdfb0bcfbfac76e8055d450935d654b64a8d6c49b304ab3eb8b5d987a2ef3ccc",
      "transactionType": "CALL",
      "contractName": null,
      "contractAddress": "0x17993708486461a22fdd2f318ad38b2a9847c8f2",
      "function": "register(bytes32,address)",
      "arguments": [
        "0x6c9f5098f78aae05a7a2c601dc4d1658fb5aea7084bfe959dd05a4a7f78d274d",
        "0x23DD041604a59502337599881B62aeFd4D9CA610"
      ],
      "transaction": {
        "from": "0xf13aad6dc07f64e4ee5577f91143a78b54bf4717",
        "to": "0x17993708486461a22fdd2f318ad38b2a9847c8f2",
        "gas": "0x115ef",
        "value": "0x0",
        "input": "0xd22057a96c9f5098f78aae05a7a2c601dc4d1658fb5aea7084bfe959dd05a4a7f78d274d00000000000000000000000023dd041604a59502337599881b62aefd4d9ca610",
        "nonce": "0xb",
        "chainId": "0xaa36a7"
      },
      "additionalContracts": [],
      "isFixedGasLimit": false
    }
  ],
  "receipts": [
    {
      "status": "0x1",
      "cumulativeGasUsed": "0x13af6e4",
      "logs": [
        {
          "address": "0x17993708486461a22fdd2f318ad38b2a9847c8f2",
          "topics": [
            "0x27b720fbfe075ba3b1bd5a33fae463fd3ad51ca724426c754c89800556e1fcbf",
            "0x6c9f5098f78aae05a7a2c601dc4d1658fb5aea7084bfe959dd05a4a7f78d274d",
            "0x00000000000000000000000023dd041604a59502337599881b62aefd4d9ca610"
          ],
          "data": "0x",
          "blockHash": "0xc05d737a3867c3e181de987cf27ececd7883c977f2050609fd90b06916155400",
          "blockNumber": "0xa74ae5",
          "blockTimestamp": "0x6a1ca948",
          "transactionHash": "0xfdfb0bcfbfac76e8055d450935d654b64a8d6c49b304ab3eb8b5d987a2ef3ccc",
          "transactionIndex": "0xaa",
          "logIndex": "0x222",
          "removed": false
        }
      ],
      "logsBloom": "0x0000000000000000000000000000000000000000000000000000000000000000000080000000000000000000000000000200000000000000000000000000000000000000000000000000010000000000000000000000000000000000000000000000000000000000000000000000000000000000000000000400000000000000000000000000000000000000000000000000000200800a000000000000000000000000000000000000000000000000000000000000000000000000000000000000000000040000000000000000000000000000000000000000000000000000000400000000000000800000000080000000000000000000000000000000000000",
      "type": "0x2",
      "transactionHash": "0xfdfb0bcfbfac76e8055d450935d654b64a8d6c49b304ab3eb8b5d987a2ef3ccc",
      "transactionIndex": "0xaa",
      "blockHash": "0xc05d737a3867c3e181de987cf27ececd7883c977f2050609fd90b06916155400",
      "blockNumber": "0xa74ae5",
      "gasUsed": "0xbe0b",
      "effectiveGasPrice": "0x442a0707",
      "from": "0xf13aad6dc07f64e4ee5577f91143a78b54bf4717",
      "to": "0x17993708486461a22fdd2f318ad38b2a9847c8f2",
      "contractAddress": null
    }
  ],
  "libraries": [],
  "pending": [],
  "returns": {},
  "timestamp": 1780263241488,
  "chain": 11155111,
  "commit": "bf12150"
}